{
  "contractName": "METFaucet",
  "abi": [
    {
      "constant": true,
      "inputs": [],
      "name": "METoken",
      "outputs": [
        {
          "name": "",
          "type": "address"
        }
      ],
      "payable": false,
      "stateMutability": "view",
      "type": "function"
    },
    {
      "constant": true,
      "inputs": [],
      "name": "METOwner",
      "outputs": [
        {
          "name": "",
          "type": "address"
        }
      ],
      "payable": false,
      "stateMutability": "view",
      "type": "function"
    },
    {
      "inputs": [
        {
          "name": "_METoken",
          "type": "address"
        },
        {
          "name": "_METOwner",
          "type": "address"
        }
      ],
      "payable": false,
      "stateMutability": "nonpayable",
      "type": "constructor"
    },
    {
      "payable": true,
      "stateMutability": "payable",
      "type": "fallback"
    },
    {
      "constant": false,
      "inputs": [
        {
          "name": "withdraw_amount",
          "type": "uint256"
        }
      ],
      "name": "withdraw",
      "outputs": [],
      "payable": false,
      "stateMutability": "nonpayable",
      "type": "function"
    }
  ],
  "bytecode": "0x6060604052341561000f57600080fd5b6040516040806103b883398101604052808051906020019091908051906020019091905050816000806101000a81548173ffffffffffffffffffffffffffffffffffffffff021916908373ffffffffffffffffffffffffffffffffffffffff16021790555080600160006101000a81548173ffffffffffffffffffffffffffffffffffffffff021916908373ffffffffffffffffffffffffffffffffffffffff16021790555050506102f2806100c66000396000f300606060405260043610610057576000357c0100000000000000000000000000000000000000000000000000000000900463ffffffff1680632e1a7d4d1461005c578063ad577be31461007f578063f27f0fac146100d4575b600080fd5b341561006757600080fd5b61007d6004808035906020019091905050610129565b005b341561008a57600080fd5b61009261027b565b604051808273ffffffffffffffffffffffffffffffffffffffff1673ffffffffffffffffffffffffffffffffffffffff16815260200191505060405180910390f35b34156100df57600080fd5b6100e76102a0565b604051808273ffffffffffffffffffffffffffffffffffffffff1673ffffffffffffffffffffffffffffffffffffffff16815260200191505060405180910390f35b6103e8811115151561013a57600080fd5b6000809054906101000a900473ffffffffffffffffffffffffffffffffffffffff1673ffffffffffffffffffffffffffffffffffffffff166323b872dd600160009054906101000a900473ffffffffffffffffffffffffffffffffffffffff1633846000604051602001526040518463ffffffff167c0100000000000000000000000000000000000000000000000000000000028152600401808473ffffffffffffffffffffffffffffffffffffffff1673ffffffffffffffffffffffffffffffffffffffff1681526020018373ffffffffffffffffffffffffffffffffffffffff1673ffffffffffffffffffffffffffffffffffffffff1681526020018281526020019350505050602060405180830381600087803b151561025c57600080fd5b6102c65a03f1151561026d57600080fd5b505050604051805190505050565b6000809054906101000a900473ffffffffffffffffffffffffffffffffffffffff1681565b600160009054906101000a900473ffffffffffffffffffffffffffffffffffffffff16815600a165627a7a723058205614fed1b3ba22e6fbff31f542c446b11557e390bec16a9465f8ab2c89d2608d0029",
  "source": "// Version of Solidity compiler this program was written for\npragma solidity ^0.4.19;\n\nimport 'zeppelin-solidity/contracts/token/ERC20/StandardToken.sol';\n\n\n// A faucet for ERC20 token MET\ncontract METFaucet {\n\n\tStandardToken public METoken;\n\taddress public METOwner;\n\n\t// METFaucet constructor, provide the address of METoken contract and\n\t// the owner address we will be approved to transferFrom\n\tfunction METFaucet(address _METoken, address _METOwner) public {\n\n\t\t// Initialize the METoken from the address provided\n\t\tMEToken = StandardToken(_METoken);\n\t\tMETOwner = _METOwner;\n\t}\n\n\tfunction withdraw(uint withdraw_amount) public {\n\n    \t// Limit withdrawal amount to 10 MET\n    \trequire(withdraw_amount <= 1000);\n\n\t\t// Use the transferFrom function of METoken\n\t\tMEToken.transferFrom(METOwner, msg.sender, withdraw_amount);\n    }\n\n\t// REJECT any incoming ether\n\tfunction () public payable { revert(); }\n\n}\n",
  "sourcePath": "/home/aantonop/Dev/ethereumbook/code/truffle/METoken_METFaucet/contracts/METFaucet.sol",
  "compiler": {
    "name": "solc",
    "version": "0.4.19+commit.c4cbbb05.Emscripten.clang"
  },
  "schemaVersion": "1.0.1",
  "updatedAt": "2018-02-20T21:33:57.515Z"
}