{
  "contractName": "caller",
  "abi": [
    {
      "constant": false,
      "inputs": [
        {
          "name": "_calledContract",
          "type": "address"
        }
      ],
      "name": "make_calls",
      "outputs": [],
      "payable": false,
      "stateMutability": "nonpayable",
      "type": "function"
    }
  ],
  "bytecode": "0x608060405234801561001057600080fd5b5061031a806100206000396000f300608060405260043610610041576000357c0100000000000000000000000000000000000000000000000000000000900463ffffffff168063e9e7bc2114610046575b600080fd5b34801561005257600080fd5b50610087600480360381019080803573ffffffffffffffffffffffffffffffffffffffff169060200190929190505050610089565b005b8073ffffffffffffffffffffffffffffffffffffffff16630d8ea1806040518163ffffffff167c0100000000000000000000000000000000000000000000000000000000028152600401600060405180830381600087803b1580156100ed57600080fd5b505af1158015610101573d6000803e3d6000fd5b5050505073__calledLibrary_________________________630d8ea1806040518163ffffffff167c010000000000000000000000000000000000000000000000000000000002815260040160006040518083038186803b15801561016557600080fd5b505af4158015610179573d6000803e3d6000fd5b505050508073ffffffffffffffffffffffffffffffffffffffff1660405180807f63616c6c656446756e6374696f6e282900000000000000000000000000000000815250601001905060405180910390207c010000000000000000000000000000000000000000000000000000000090046040518163ffffffff167c01000000000000000000000000000000000000000000000000000000000281526004016000604051808303816000875af192505050151561023557600080fd5b8073ffffffffffffffffffffffffffffffffffffffff1660405180807f63616c6c656446756e6374696f6e282900000000000000000000000000000000815250601001905060405180910390207c010000000000000000000000000000000000000000000000000000000090046040518163ffffffff167c0100000000000000000000000000000000000000000000000000000000028152600401600060405180830381865af49250505015156102eb57600080fd5b505600a165627a7a72305820d5c2f344d523bbf5d99842e3af6e6bc9ceeabcbe64eff4cce2e7505511416fe80029",
  "source": "pragma solidity ^0.4.22;\n\ncontract calledContract {\n\tevent callEvent(address sender, address origin, address from);\n\tfunction calledFunction() public {\n\t\temit callEvent(msg.sender, tx.origin, this);\n\t}\n}\n\nlibrary calledLibrary {\n\tevent callEvent(address sender, address origin,  address from);\n\tfunction calledFunction() public {\n\t\temit callEvent(msg.sender, tx.origin, this);\n\t}\n}\n\ncontract caller {\n\n\tfunction make_calls(calledContract _calledContract) public {\n\n\t\t// Calling the calledContract and calledLibrary directly\n\t\t_calledContract.calledFunction();\n\t\tcalledLibrary.calledFunction();\n\n\t\t// Low level calls using the address object for calledContract\n\t\trequire(address(_calledContract).call(bytes4(keccak256(\"calledFunction()\"))));\n\t\trequire(address(_calledContract).delegatecall(bytes4(keccak256(\"calledFunction()\"))));\n\n\n\n\t}\n}\n",
  "sourcePath": "/home/aantonop/Dev/ethereumbook/code/truffle/CallExamples/contracts/CallExamples.sol",
  "compiler": {
    "name": "solc",
    "version": "0.4.23+commit.124ca40d.Emscripten.clang"
  },
  "schemaVersion": "2.0.0",
  "updatedAt": "2018-05-01T18:20:03.382Z"
}