{
  "contractName": "calledLibrary",
  "abi": [
    {
      "anonymous": false,
      "inputs": [
        {
          "indexed": false,
          "name": "sender",
          "type": "address"
        },
        {
          "indexed": false,
          "name": "origin",
          "type": "address"
        },
        {
          "indexed": false,
          "name": "from",
          "type": "address"
        }
      ],
      "name": "callEvent",
      "type": "event"
    },
    {
      "constant": false,
      "inputs": [],
      "name": "calledFunction",
      "outputs": [],
      "payable": false,
      "stateMutability": "nonpayable",
      "type": "function"
    }
  ],
  "bytecode": "0x61016d610030600b82828239805160001a6073146000811461002057610022565bfe5b5030600052607381538281f3007300000000000000000000000000000000000000003014608060405260043610610058576000357c0100000000000000000000000000000000000000000000000000000000900463ffffffff1680630d8ea1801461005d575b600080fd5b81801561006957600080fd5b50610072610074565b005b7fc90ed2a0abbce0ddd0cfd1fd303f15bf1a3860b32002dc1ed37873ea88948830333230604051808473ffffffffffffffffffffffffffffffffffffffff1673ffffffffffffffffffffffffffffffffffffffff1681526020018373ffffffffffffffffffffffffffffffffffffffff1673ffffffffffffffffffffffffffffffffffffffff1681526020018273ffffffffffffffffffffffffffffffffffffffff1673ffffffffffffffffffffffffffffffffffffffff168152602001935050505060405180910390a15600a165627a7a7230582031ea7263bc89f739247d55cee9f99fdb3c7751d1bbde740dbaed8f4e951622890029",
  "source": "pragma solidity ^0.4.22;\n\ncontract calledContract {\n\tevent callEvent(address sender, address origin, address from);\n\tfunction calledFunction() public {\n\t\temit callEvent(msg.sender, tx.origin, this);\n\t}\n}\n\nlibrary calledLibrary {\n\tevent callEvent(address sender, address origin,  address from);\n\tfunction calledFunction() public {\n\t\temit callEvent(msg.sender, tx.origin, this);\n\t}\n}\n\ncontract caller {\n\n\tfunction make_calls(calledContract _calledContract) public {\n\n\t\t// Calling the calledContract and calledLibrary directly\n\t\t_calledContract.calledFunction();\n\t\tcalledLibrary.calledFunction();\n\n\t\t// Low level calls using the address object for calledContract\n\t\trequire(address(_calledContract).call(bytes4(keccak256(\"calledFunction()\"))));\n\t\trequire(address(_calledContract).delegatecall(bytes4(keccak256(\"calledFunction()\"))));\n\n\n\n\t}\n}\n",
  "sourcePath": "/home/aantonop/Dev/ethereumbook/code/truffle/CallExamples/contracts/CallExamples.sol",
  "compiler": {
    "name": "solc",
    "version": "0.4.23+commit.124ca40d.Emscripten.clang"
  },
  "schemaVersion": "2.0.0",
  "updatedAt": "2018-05-01T18:20:03.384Z"
}