{
    "contractName": "AuctionRepository",
    "abi": [
        {
            "constant": true,
            "inputs": [
                {
                    "name": "",
                    "type": "uint256"
                }
            ],
            "name": "auctions",
            "outputs": [
                {
                    "name": "name",
                    "type": "string"
                },
                {
                    "name": "blockDeadline",
                    "type": "uint256"
                },
                {
                    "name": "startPrice",
                    "type": "uint256"
                },
                {
                    "name": "metadata",
                    "type": "string"
                },
                {
                    "name": "deedId",
                    "type": "uint256"
                },
                {
                    "name": "deedRepositoryAddress",
                    "type": "address"
                },
                {
                    "name": "owner",
                    "type": "address"
                },
                {
                    "name": "active",
                    "type": "bool"
                },
                {
                    "name": "finalized",
                    "type": "bool"
                }
            ],
            "payable": false,
            "stateMutability": "view",
            "type": "function"
        },
        {
            "constant": true,
            "inputs": [
                {
                    "name": "",
                    "type": "uint256"
                },
                {
                    "name": "",
                    "type": "uint256"
                }
            ],
            "name": "auctionBids",
            "outputs": [
                {
                    "name": "from",
                    "type": "address"
                },
                {
                    "name": "amount",
                    "type": "uint256"
                }
            ],
            "payable": false,
            "stateMutability": "view",
            "type": "function"
        },
        {
            "constant": true,
            "inputs": [
                {
                    "name": "",
                    "type": "address"
                },
                {
                    "name": "",
                    "type": "uint256"
                }
            ],
            "name": "auctionOwner",
            "outputs": [
                {
                    "name": "",
                    "type": "uint256"
                }
            ],
            "payable": false,
            "stateMutability": "view",
            "type": "function"
        },
        {
            "payable": false,
            "stateMutability": "nonpayable",
            "type": "fallback"
        },
        {
            "anonymous": false,
            "inputs": [
                {
                    "indexed": false,
                    "name": "_from",
                    "type": "address"
                },
                {
                    "indexed": false,
                    "name": "_auctionId",
                    "type": "uint256"
                }
            ],
            "name": "BidSuccess",
            "type": "event"
        },
        {
            "anonymous": false,
            "inputs": [
                {
                    "indexed": false,
                    "name": "_owner",
                    "type": "address"
                },
                {
                    "indexed": false,
                    "name": "_auctionId",
                    "type": "uint256"
                }
            ],
            "name": "AuctionCreated",
            "type": "event"
        },
        {
            "anonymous": false,
            "inputs": [
                {
                    "indexed": false,
                    "name": "_owner",
                    "type": "address"
                },
                {
                    "indexed": false,
                    "name": "_auctionId",
                    "type": "uint256"
                }
            ],
            "name": "AuctionCanceled",
            "type": "event"
        },
        {
            "anonymous": false,
            "inputs": [
                {
                    "indexed": false,
                    "name": "_owner",
                    "type": "address"
                },
                {
                    "indexed": false,
                    "name": "_auctionId",
                    "type": "uint256"
                }
            ],
            "name": "AuctionFinalized",
            "type": "event"
        },
        {
            "constant": true,
            "inputs": [],
            "name": "getCount",
            "outputs": [
                {
                    "name": "",
                    "type": "uint256"
                }
            ],
            "payable": false,
            "stateMutability": "view",
            "type": "function"
        },
        {
            "constant": true,
            "inputs": [
                {
                    "name": "_auctionId",
                    "type": "uint256"
                }
            ],
            "name": "getBidsCount",
            "outputs": [
                {
                    "name": "",
                    "type": "uint256"
                }
            ],
            "payable": false,
            "stateMutability": "view",
            "type": "function"
        },
        {
            "constant": true,
            "inputs": [
                {
                    "name": "_owner",
                    "type": "address"
                }
            ],
            "name": "getAuctionsOf",
            "outputs": [
                {
                    "name": "",
                    "type": "uint256[]"
                }
            ],
            "payable": false,
            "stateMutability": "view",
            "type": "function"
        },
        {
            "constant": true,
            "inputs": [
                {
                    "name": "_auctionId",
                    "type": "uint256"
                }
            ],
            "name": "getCurrentBid",
            "outputs": [
                {
                    "name": "",
                    "type": "uint256"
                },
                {
                    "name": "",
                    "type": "address"
                }
            ],
            "payable": false,
            "stateMutability": "view",
            "type": "function"
        },
        {
            "constant": true,
            "inputs": [
                {
                    "name": "_owner",
                    "type": "address"
                }
            ],
            "name": "getAuctionsCountOfOwner",
            "outputs": [
                {
                    "name": "",
                    "type": "uint256"
                }
            ],
            "payable": false,
            "stateMutability": "view",
            "type": "function"
        },
        {
            "constant": true,
            "inputs": [
                {
                    "name": "_auctionId",
                    "type": "uint256"
                }
            ],
            "name": "getAuctionById",
            "outputs": [
                {
                    "name": "name",
                    "type": "string"
                },
                {
                    "name": "blockDeadline",
                    "type": "uint256"
                },
                {
                    "name": "startPrice",
                    "type": "uint256"
                },
                {
                    "name": "metadata",
                    "type": "string"
                },
                {
                    "name": "deedId",
                    "type": "uint256"
                },
                {
                    "name": "deedRepositoryAddress",
                    "type": "address"
                },
                {
                    "name": "owner",
                    "type": "address"
                },
                {
                    "name": "active",
                    "type": "bool"
                },
                {
                    "name": "finalized",
                    "type": "bool"
                }
            ],
            "payable": false,
            "stateMutability": "view",
            "type": "function"
        },
        {
            "constant": false,
            "inputs": [
                {
                    "name": "_deedRepositoryAddress",
                    "type": "address"
                },
                {
                    "name": "_deedId",
                    "type": "uint256"
                },
                {
                    "name": "_auctionTitle",
                    "type": "string"
                },
                {
                    "name": "_metadata",
                    "type": "string"
                },
                {
                    "name": "_startPrice",
                    "type": "uint256"
                },
                {
                    "name": "_blockDeadline",
                    "type": "uint256"
                }
            ],
            "name": "createAuction",
            "outputs": [
                {
                    "name": "",
                    "type": "bool"
                }
            ],
            "payable": false,
            "stateMutability": "nonpayable",
            "type": "function"
        },
        {
            "constant": false,
            "inputs": [
                {
                    "name": "_auctionId",
                    "type": "uint256"
                }
            ],
            "name": "cancelAuction",
            "outputs": [],
            "payable": false,
            "stateMutability": "nonpayable",
            "type": "function"
        },
        {
            "constant": false,
            "inputs": [
                {
                    "name": "_auctionId",
                    "type": "uint256"
                }
            ],
            "name": "finalizeAuction",
            "outputs": [],
            "payable": false,
            "stateMutability": "nonpayable",
            "type": "function"
        },
        {
            "constant": false,
            "inputs": [
                {
                    "name": "_auctionId",
                    "type": "uint256"
                }
            ],
            "name": "bidOnAuction",
            "outputs": [],
            "payable": true,
            "stateMutability": "payable",
            "type": "function"
        }
    ],
    "bytecode": "0x6060604052341561000f57600080fd5b61273a8061001e6000396000f3006060604052600436106100c5576000357c0100000000000000000000000000000000000000000000000000000000900463ffffffff16806318111ada146100d557806326b7aeea1461026e5780634008f9c014610286578063571a26a0146102bd5780635f93de491461045657806396b5a755146104c9578063a87d942c146104ec578063b1b61bfa14610515578063c8756cda146105a3578063d56aa558146105f9578063da4e364f14610646578063e1b96581146106b0578063e8083863146107a2575b34156100d057600080fd5b600080fd5b34156100e057600080fd5b6100f660048080359060200190919050506107c5565b60405180806020018a8152602001898152602001806020018881526020018773ffffffffffffffffffffffffffffffffffffffff1673ffffffffffffffffffffffffffffffffffffffff1681526020018673ffffffffffffffffffffffffffffffffffffffff1673ffffffffffffffffffffffffffffffffffffffff168152602001851515151581526020018415151515815260200183810383528c818151815260200191508051906020019080838360005b838110156101c45780820151818401526020810190506101a9565b50505050905090810190601f1680156101f15780820380516001836020036101000a031916815260200191505b50838103825289818151815260200191508051906020019080838360005b8381101561022a57808201518184015260208101905061020f565b50505050905090810190601f1680156102575780820380516001836020036101000a031916815260200191505b509b50505050505050505050505060405180910390f35b6102846004808035906020019091905050610aac565b005b341561029157600080fd5b6102a76004808035906020019091905050610ffd565b6040518082815260200191505060405180910390f35b34156102c857600080fd5b6102de600480803590602001909190505061101d565b60405180806020018a8152602001898152602001806020018881526020018773ffffffffffffffffffffffffffffffffffffffff1673ffffffffffffffffffffffffffffffffffffffff1681526020018673ffffffffffffffffffffffffffffffffffffffff1673ffffffffffffffffffffffffffffffffffffffff168152602001851515151581526020018415151515815260200183810383528c818151815260200191508051906020019080838360005b838110156103ac578082015181840152602081019050610391565b50505050905090810190601f1680156103d95780820380516001836020036101000a031916815260200191505b50838103825289818151815260200191508051906020019080838360005b838110156104125780820151818401526020810190506103f7565b50505050905090810190601f16801561043f5780820380516001836020036101000a031916815260200191505b509b50505050505050505050505060405180910390f35b341561046157600080fd5b6104806004808035906020019091908035906020019091905050611204565b604051808373ffffffffffffffffffffffffffffffffffffffff1673ffffffffffffffffffffffffffffffffffffffff1681526020018281526020019250505060405180910390f35b34156104d457600080fd5b6104ea6004808035906020019091905050611264565b005b34156104f757600080fd5b6104ff611732565b6040518082815260200191505060405180910390f35b341561052057600080fd5b61054c600480803573ffffffffffffffffffffffffffffffffffffffff1690602001909190505061173e565b6040518080602001828103825283818151815260200191508051906020019060200280838360005b8381101561058f578082015181840152602081019050610574565b505050509050019250505060405180910390f35b34156105ae57600080fd5b6105e3600480803573ffffffffffffffffffffffffffffffffffffffff169060200190919080359060200190919050506117e7565b6040518082815260200191505060405180910390f35b341561060457600080fd5b610630600480803573ffffffffffffffffffffffffffffffffffffffff16906020019091905050611818565b6040518082815260200191505060405180910390f35b341561065157600080fd5b6106676004808035906020019091905050611864565b604051808381526020018273ffffffffffffffffffffffffffffffffffffffff1673ffffffffffffffffffffffffffffffffffffffff1681526020019250505060405180910390f35b34156106bb57600080fd5b610788600480803573ffffffffffffffffffffffffffffffffffffffff1690602001909190803590602001909190803590602001908201803590602001908080601f0160208091040260200160405190810160405280939291908181526020018383808284378201915050505050509190803590602001908201803590602001908080601f01602080910402602001604051908101604052809392919081815260200183838082843782019150505050505091908035906020019091908035906020019091905050611959565b604051808215151515815260200191505060405180910390f35b34156107ad57600080fd5b6107c36004808035906020019091905050611d2c565b005b6107cd612381565b6000806107d8612381565b60008060008060006107e8612395565b60008b8154811015156107f757fe5b90600052602060002090600702016101206040519081016040529081600082018054600181600116156101000203166002900480601f0160208091040260200160405190810160405280929190818152602001828054600181600116156101000203166002900480156108ab5780601f10610880576101008083540402835291602001916108ab565b820191906000526020600020905b81548152906001019060200180831161088e57829003601f168201915b505050505081526020016001820154815260200160028201548152602001600382018054600181600116156101000203166002900480601f0160208091040260200160405190810160405280929190818152602001828054600181600116156101000203166002900480156109615780601f1061093657610100808354040283529160200191610961565b820191906000526020600020905b81548152906001019060200180831161094457829003601f168201915b50505050508152602001600482015481526020016005820160009054906101000a900473ffffffffffffffffffffffffffffffffffffffff1673ffffffffffffffffffffffffffffffffffffffff1673ffffffffffffffffffffffffffffffffffffffff1681526020016006820160009054906101000a900473ffffffffffffffffffffffffffffffffffffffff1673ffffffffffffffffffffffffffffffffffffffff1673ffffffffffffffffffffffffffffffffffffffff1681526020016006820160149054906101000a900460ff161515151581526020016006820160159054906101000a900460ff1615151515815250509050806000015181602001518260400151836060015184608001518560a001518660c001518760e00151886101000151889850859550995099509950995099509950995099509950509193959799909294969850565b6000610ab6612395565b600080610ac161241e565b610ac961241e565b349550600087815481101515610adb57fe5b90600052602060002090600702016101206040519081016040529081600082018054600181600116156101000203166002900480601f016020809104026020016040519081016040528092919081815260200182805460018160011615610100020316600290048015610b8f5780601f10610b6457610100808354040283529160200191610b8f565b820191906000526020600020905b815481529060010190602001808311610b7257829003601f168201915b505050505081526020016001820154815260200160028201548152602001600382018054600181600116156101000203166002900480601f016020809104026020016040519081016040528092919081815260200182805460018160011615610100020316600290048015610c455780601f10610c1a57610100808354040283529160200191610c45565b820191906000526020600020905b815481529060010190602001808311610c2857829003601f168201915b50505050508152602001600482015481526020016005820160009054906101000a900473ffffffffffffffffffffffffffffffffffffffff1673ffffffffffffffffffffffffffffffffffffffff1673ffffffffffffffffffffffffffffffffffffffff1681526020016006820160009054906101000a900473ffffffffffffffffffffffffffffffffffffffff1673ffffffffffffffffffffffffffffffffffffffff1673ffffffffffffffffffffffffffffffffffffffff1681526020016006820160149054906101000a900460ff161515151581526020016006820160159054906101000a900460ff16151515158152505094503373ffffffffffffffffffffffffffffffffffffffff168560c0015173ffffffffffffffffffffffffffffffffffffffff161415610d7957600080fd5b8460200151421115610d8a57600080fd5b60016000888152602001908152602001600020805490509350846040015192506000841115610e59576001600088815260200190815260200160002060018503815481101515610dd657fe5b90600052602060002090600202016040805190810160405290816000820160009054906101000a900473ffffffffffffffffffffffffffffffffffffffff1673ffffffffffffffffffffffffffffffffffffffff1673ffffffffffffffffffffffffffffffffffffffff1681526020016001820154815250509150816020015192505b82861015610e6657600080fd5b6000841115610eb857816000015173ffffffffffffffffffffffffffffffffffffffff166108fc83602001519081150290604051600060405180830381858888f193505050501515610eb757600080fd5b5b33816000019073ffffffffffffffffffffffffffffffffffffffff16908173ffffffffffffffffffffffffffffffffffffffff168152505085816020018181525050600160008881526020019081526020016000208054806001018281610f1f919061244e565b9160005260206000209060020201600083909190915060008201518160000160006101000a81548173ffffffffffffffffffffffffffffffffffffffff021916908373ffffffffffffffffffffffffffffffffffffffff160217905550602082015181600101555050507f5762e6a7d331cd17a1761e94de3ea3b85e90ee6cdd9d1204e361cc650689d4633388604051808373ffffffffffffffffffffffffffffffffffffffff1673ffffffffffffffffffffffffffffffffffffffff1681526020018281526020019250505060405180910390a150505050505050565b600060016000838152602001908152602001600020805490509050919050565b60008181548110151561102c57fe5b9060005260206000209060070201600091509050806000018054600181600116156101000203166002900480601f0160208091040260200160405190810160405280929190818152602001828054600181600116156101000203166002900480156110d85780601f106110ad576101008083540402835291602001916110d8565b820191906000526020600020905b8154815290600101906020018083116110bb57829003601f168201915b505050505090806001015490806002015490806003018054600181600116156101000203166002900480601f0160208091040260200160405190810160405280929190818152602001828054600181600116156101000203166002900480156111825780601f1061115757610100808354040283529160200191611182565b820191906000526020600020905b81548152906001019060200180831161116557829003601f168201915b5050505050908060040154908060050160009054906101000a900473ffffffffffffffffffffffffffffffffffffffff16908060060160009054906101000a900473ffffffffffffffffffffffffffffffffffffffff16908060060160149054906101000a900460ff16908060060160159054906101000a900460ff16905089565b60016020528160005260406000208181548110151561121f57fe5b9060005260206000209060020201600091509150508060000160009054906101000a900473ffffffffffffffffffffffffffffffffffffffff16908060010154905082565b61126c612395565b600061127661241e565b833373ffffffffffffffffffffffffffffffffffffffff1660008281548110151561129d57fe5b906000526020600020906007020160060160009054906101000a900473ffffffffffffffffffffffffffffffffffffffff1673ffffffffffffffffffffffffffffffffffffffff161415156112f157600080fd5b60008581548110151561130057fe5b90600052602060002090600702016101206040519081016040529081600082018054600181600116156101000203166002900480601f0160208091040260200160405190810160405280929190818152602001828054600181600116156101000203166002900480156113b45780601f10611389576101008083540402835291602001916113b4565b820191906000526020600020905b81548152906001019060200180831161139757829003601f168201915b505050505081526020016001820154815260200160028201548152602001600382018054600181600116156101000203166002900480601f01602080910402602001604051908101604052809291908181526020018280546001816001161561010002031660029004801561146a5780601f1061143f5761010080835404028352916020019161146a565b820191906000526020600020905b81548152906001019060200180831161144d57829003601f168201915b50505050508152602001600482015481526020016005820160009054906101000a900473ffffffffffffffffffffffffffffffffffffffff1673ffffffffffffffffffffffffffffffffffffffff1673ffffffffffffffffffffffffffffffffffffffff1681526020016006820160009054906101000a900473ffffffffffffffffffffffffffffffffffffffff1673ffffffffffffffffffffffffffffffffffffffff1673ffffffffffffffffffffffffffffffffffffffff1681526020016006820160149054906101000a900460ff161515151581526020016006820160159054906101000a900460ff161515151581525050935060016000868152602001908152602001600020805490509250600083111561166a5760016000868152602001908152602001600020600184038154811015156115a657fe5b90600052602060002090600202016040805190810160405290816000820160009054906101000a900473ffffffffffffffffffffffffffffffffffffffff1673ffffffffffffffffffffffffffffffffffffffff1673ffffffffffffffffffffffffffffffffffffffff1681526020016001820154815250509150816000015173ffffffffffffffffffffffffffffffffffffffff166108fc83602001519081150290604051600060405180830381858888f19350505050151561166957600080fd5b5b611682308560c001518660a0015187608001516121d6565b1561172b576000808681548110151561169757fe5b906000526020600020906007020160060160146101000a81548160ff0219169083151502179055507f39e6c898ce035bbacd9ba4f9753534f8c9f976e0ff70be83cfe887f235afa1d33386604051808373ffffffffffffffffffffffffffffffffffffffff1673ffffffffffffffffffffffffffffffffffffffff1681526020018281526020019250505060405180910390a15b5050505050565b60008080549050905090565b611746612480565b61174e612480565b600260008473ffffffffffffffffffffffffffffffffffffffff1673ffffffffffffffffffffffffffffffffffffffff1681526020019081526020016000208054806020026020016040519081016040528092919081815260200182805480156117d757602002820191906000526020600020905b8154815260200190600101908083116117c3575b5050505050905080915050919050565b60026020528160005260406000208181548110151561180257fe5b9060005260206000209001600091509150505481565b6000600260008373ffffffffffffffffffffffffffffffffffffffff1673ffffffffffffffffffffffffffffffffffffffff168152602001908152602001600020805490509050919050565b600080600061187161241e565b6001600086815260200190815260200160002080549050915060008211156119445760016000868152602001908152602001600020600183038154811015156118b657fe5b90600052602060002090600202016040805190810160405290816000820160009054906101000a900473ffffffffffffffffffffffffffffffffffffffff1673ffffffffffffffffffffffffffffffffffffffff1673ffffffffffffffffffffffffffffffffffffffff16815260200160018201548152505090508060200151816000015193509350611952565b600080819150809050935093505b5050915091565b600080611964612395565b888860008273ffffffffffffffffffffffffffffffffffffffff16636352211e836040518263ffffffff167c010000000000000000000000000000000000000000000000000000000002815260040180828152602001915050602060405180830381600087803b15156119d657600080fd5b5af115156119e357600080fd5b5050506040518051905090503073ffffffffffffffffffffffffffffffffffffffff168173ffffffffffffffffffffffffffffffffffffffff16141515611a2957600080fd5b600080549050945089846000018190525086846020018181525050878460400181815250508884606001819052508a8460800181815250508b8460a0019073ffffffffffffffffffffffffffffffffffffffff16908173ffffffffffffffffffffffffffffffffffffffff1681525050338460c0019073ffffffffffffffffffffffffffffffffffffffff16908173ffffffffffffffffffffffffffffffffffffffff168152505060018460e001901515908115158152505060008461010001901515908115158152505060008054806001018281611b089190612494565b916000526020600020906007020160008690919091506000820151816000019080519060200190611b3a9291906124c6565b5060208201518160010155604082015181600201556060820151816003019080519060200190611b6b9291906124c6565b506080820151816004015560a08201518160050160006101000a81548173ffffffffffffffffffffffffffffffffffffffff021916908373ffffffffffffffffffffffffffffffffffffffff16021790555060c08201518160060160006101000a81548173ffffffffffffffffffffffffffffffffffffffff021916908373ffffffffffffffffffffffffffffffffffffffff16021790555060e08201518160060160146101000a81548160ff0219169083151502179055506101008201518160060160156101000a81548160ff021916908315150217905550505050600260003373ffffffffffffffffffffffffffffffffffffffff1673ffffffffffffffffffffffffffffffffffffffff1681526020019081526020016000208054806001018281611c999190612546565b9160005260206000209001600087909190915055507f3249a06bd478adf780bb7930214ad005e9cfa517d63221c0b77f27199d1a58b33386604051808373ffffffffffffffffffffffffffffffffffffffff1673ffffffffffffffffffffffffffffffffffffffff1681526020018281526020019250505060405180910390a16001955050505050509695505050505050565b611d34612395565b6000611d3e61241e565b600084815481101515611d4d57fe5b90600052602060002090600702016101206040519081016040529081600082018054600181600116156101000203166002900480601f016020809104026020016040519081016040528092919081815260200182805460018160011615610100020316600290048015611e015780601f10611dd657610100808354040283529160200191611e01565b820191906000526020600020905b815481529060010190602001808311611de457829003601f168201915b505050505081526020016001820154815260200160028201548152602001600382018054600181600116156101000203166002900480601f016020809104026020016040519081016040528092919081815260200182805460018160011615610100020316600290048015611eb75780601f10611e8c57610100808354040283529160200191611eb7565b820191906000526020600020905b815481529060010190602001808311611e9a57829003601f168201915b50505050508152602001600482015481526020016005820160009054906101000a900473ffffffffffffffffffffffffffffffffffffffff1673ffffffffffffffffffffffffffffffffffffffff1673ffffffffffffffffffffffffffffffffffffffff1681526020016006820160009054906101000a900473ffffffffffffffffffffffffffffffffffffffff1673ffffffffffffffffffffffffffffffffffffffff1673ffffffffffffffffffffffffffffffffffffffff1681526020016006820160149054906101000a900460ff161515151581526020016006820160159054906101000a900460ff1615151515815250509250600160008581526020019081526020016000208054905091508260200151421015611fd857600080fd5b6000821415611fef57611fea84611264565b6121d0565b600160008581526020019081526020016000206001830381548110151561201257fe5b90600052602060002090600202016040805190810160405290816000820160009054906101000a900473ffffffffffffffffffffffffffffffffffffffff1673ffffffffffffffffffffffffffffffffffffffff1673ffffffffffffffffffffffffffffffffffffffff16815260200160018201548152505090508260c0015173ffffffffffffffffffffffffffffffffffffffff166108fc82602001519081150290604051600060405180830381858888f1935050505015156120d557600080fd5b6120ed3082600001518560a0015186608001516121d6565b156121cf576000808581548110151561210257fe5b906000526020600020906007020160060160146101000a81548160ff021916908315150217905550600160008581548110151561213b57fe5b906000526020600020906007020160060160156101000a81548160ff0219169083151502179055507f357afab190ee87fe0ef1c717f2728d2904d9e415a069d99f4d9382873cb3279d3385604051808373ffffffffffffffffffffffffffffffffffffffff1673ffffffffffffffffffffffffffffffffffffffff1681526020018281526020019250505060405180910390a15b5b50505050565b6000808390508073ffffffffffffffffffffffffffffffffffffffff1663095ea7b386856040518363ffffffff167c0100000000000000000000000000000000000000000000000000000000028152600401808373ffffffffffffffffffffffffffffffffffffffff1673ffffffffffffffffffffffffffffffffffffffff16815260200182815260200192505050600060405180830381600087803b151561227e57600080fd5b5af1151561228b57600080fd5b5050508073ffffffffffffffffffffffffffffffffffffffff166323b872dd8787866040518463ffffffff167c0100000000000000000000000000000000000000000000000000000000028152600401808473ffffffffffffffffffffffffffffffffffffffff1673ffffffffffffffffffffffffffffffffffffffff1681526020018373ffffffffffffffffffffffffffffffffffffffff1673ffffffffffffffffffffffffffffffffffffffff1681526020018281526020019350505050600060405180830381600087803b151561236457600080fd5b5af1151561237157600080fd5b5050506001915050949350505050565b602060405190810160405280600081525090565b610120604051908101604052806123aa612572565b815260200160008152602001600081526020016123c5612572565b815260200160008152602001600073ffffffffffffffffffffffffffffffffffffffff168152602001600073ffffffffffffffffffffffffffffffffffffffff1681526020016000151581526020016000151581525090565b6040805190810160405280600073ffffffffffffffffffffffffffffffffffffffff168152602001600081525090565b81548183558181151161247b5760020281600202836000526020600020918201910161247a9190612586565b5b505050565b602060405190810160405280600081525090565b8154818355818115116124c1576007028160070283600052602060002091820191016124c091906125d4565b5b505050565b828054600181600116156101000203166002900490600052602060002090601f016020900481019282601f1061250757805160ff1916838001178555612535565b82800160010185558215612535579182015b82811115612534578251825591602001919060010190612519565b5b50905061254291906126a1565b5090565b81548183558181151161256d5781836000526020600020918201910161256c91906126a1565b5b505050565b602060405190810160405280600081525090565b6125d191905b808211156125cd57600080820160006101000a81549073ffffffffffffffffffffffffffffffffffffffff021916905560018201600090555060020161258c565b5090565b90565b61269e91905b8082111561269a57600080820160006125f391906126c6565b6001820160009055600282016000905560038201600061261391906126c6565b60048201600090556005820160006101000a81549073ffffffffffffffffffffffffffffffffffffffff02191690556006820160006101000a81549073ffffffffffffffffffffffffffffffffffffffff02191690556006820160146101000a81549060ff02191690556006820160156101000a81549060ff0219169055506007016125da565b5090565b90565b6126c391905b808211156126bf5760008160009055506001016126a7565b5090565b90565b50805460018160011615610100020316600290046000825580601f106126ec575061270b565b601f01602090049060005260206000209081019061270a91906126a1565b5b505600a165627a7a72305820168300a0ad206135efaaf3ee9370248f7bef3836328d1145c409779d9e7fef830029",
    "source": "pragma solidity ^0.4.17;\n\nimport \"./DeedRepository.sol\";\n\n/**\n * @title Auction Repository\n * This contracts allows auctions to be created for non-fungible tokens\n * Moreover, it includes the basic functionalities of an auction house\n */\ncontract AuctionRepository {\n    \n    // Array with all auctions\n    Auction[] public auctions;\n\n    // Mapping from auction index to user bids\n    mapping(uint256 => Bid[]) public auctionBids;\n\n    // Mapping from owner to a list of owned auctions\n    mapping(address => uint[]) public auctionOwner;\n\n    // Bid struct to hold bidder and amount\n    struct Bid {\n        address from;\n        uint256 amount;\n    }\n\n    // Auction struct which holds all the required info\n    struct Auction {\n        string name;\n        uint256 blockDeadline;\n        uint256 startPrice;\n        string metadata;\n        uint256 deedId;\n        address deedRepositoryAddress;\n        address owner;\n        bool active;\n        bool finalized;\n    }\n\n    /**\n    * @dev Guarantees msg.sender is owner of the given auction\n    * @param _auctionId uint ID of the auction to validate its ownership belongs to msg.sender\n    */\n    modifier isOwner(uint _auctionId) {\n        require(auctions[_auctionId].owner == msg.sender);\n        _;\n    }\n\n    /**\n    * @dev Guarantees this contract is owner of the given deed/token\n    * @param _deedRepositoryAddress address of the deed repository to validate from\n    * @param _deedId uint256 ID of the deed which has been registered in the deed repository\n    */\n    modifier contractIsDeedOwner(address _deedRepositoryAddress, uint256 _deedId) {\n        address deedOwner = DeedRepository(_deedRepositoryAddress).ownerOf(_deedId);\n        require(deedOwner == address(this));\n        _;\n    }\n\n    /**\n    * @dev Disallow payments to this contract directly\n    */\n    function() public{\n        revert();\n    }\n\n    /**\n    * @dev Gets the length of auctions\n    * @return uint representing the auction count\n    */\n    function getCount() public constant returns(uint) {\n        return auctions.length;\n    }\n\n    /**\n    * @dev Gets the bid counts of a given auction\n    * @param _auctionId uint ID of the auction\n    */\n    function getBidsCount(uint _auctionId) public constant returns(uint) {\n        return auctionBids[_auctionId].length;\n    }\n\n    /**\n    * @dev Gets an array of owned auctions\n    * @param _owner address of the auction owner\n    */\n    function getAuctionsOf(address _owner) public constant returns(uint[]) {\n        uint[] memory ownedAuctions = auctionOwner[_owner];\n        return ownedAuctions;\n    }\n\n    /**\n    * @dev Gets an array of owned auctions\n    * @param _auctionId uint of the auction owner\n    * @return amount uint256, address of last bidder\n    */\n    function getCurrentBid(uint _auctionId) public constant returns(uint256, address) {\n        uint bidsLength = auctionBids[_auctionId].length;\n        // if there are bids refund the last bid\n        if( bidsLength > 0 ) {\n            Bid memory lastBid = auctionBids[_auctionId][bidsLength - 1];\n            return (lastBid.amount, lastBid.from);\n        }\n        return (0, 0);\n    }\n\n    /**\n    * @dev Gets the total number of auctions owned by an address\n    * @param _owner address of the owner\n    * @return uint total number of auctions\n    */\n    function getAuctionsCountOfOwner(address _owner) public constant returns(uint) {\n        return auctionOwner[_owner].length;\n    }\n\n    /**\n    * @dev Gets the info of a given auction which are stored within a struct\n    * @param _auctionId uint ID of the auction\n    * @return string name of the auction\n    * @return uint256 timestamp of the auction in which it expires\n    * @return uint256 starting price of the auction\n    * @return string representing the metadata of the auction\n    * @return uint256 ID of the deed registered in DeedRepository\n    * @return address Address of the DeedRepository\n    * @return address owner of the auction\n    * @return bool whether the auction is active\n    * @return bool whether the auction is finalized\n    */\n    function getAuctionById(uint _auctionId) public constant returns(\n        string name,\n        uint256 blockDeadline,\n        uint256 startPrice,\n        string metadata,\n        uint256 deedId,\n        address deedRepositoryAddress,\n        address owner,\n        bool active,\n        bool finalized) {\n\n        Auction memory auc = auctions[_auctionId];\n        return (\n            auc.name, \n            auc.blockDeadline, \n            auc.startPrice, \n            auc.metadata, \n            auc.deedId, \n            auc.deedRepositoryAddress, \n            auc.owner, \n            auc.active, \n            auc.finalized);\n    }\n    \n    /**\n    * @dev Creates an auction with the given informatin\n    * @param _deedRepositoryAddress address of the DeedRepository contract\n    * @param _deedId uint256 of the deed registered in DeedRepository\n    * @param _auctionTitle string containing auction title\n    * @param _metadata string containing auction metadata \n    * @param _startPrice uint256 starting price of the auction\n    * @param _blockDeadline uint is the timestamp in which the auction expires\n    * @return bool whether the auction is created\n    */\n    function createAuction(address _deedRepositoryAddress, uint256 _deedId, string _auctionTitle, string _metadata, uint256 _startPrice, uint _blockDeadline) public contractIsDeedOwner(_deedRepositoryAddress, _deedId) returns(bool) {\n        uint auctionId = auctions.length;\n        Auction memory newAuction;\n        newAuction.name = _auctionTitle;\n        newAuction.blockDeadline = _blockDeadline;\n        newAuction.startPrice = _startPrice;\n        newAuction.metadata = _metadata;\n        newAuction.deedId = _deedId;\n        newAuction.deedRepositoryAddress = _deedRepositoryAddress;\n        newAuction.owner = msg.sender;\n        newAuction.active = true;\n        newAuction.finalized = false;\n        \n        auctions.push(newAuction);        \n        auctionOwner[msg.sender].push(auctionId);\n        \n        emit AuctionCreated(msg.sender, auctionId);\n        return true;\n    }\n\n    function approveAndTransfer(address _from, address _to, address _deedRepositoryAddress, uint256 _deedId) internal returns(bool) {\n        DeedRepository remoteContract = DeedRepository(_deedRepositoryAddress);\n        remoteContract.approve(_to, _deedId);\n        remoteContract.transferFrom(_from, _to, _deedId);\n        return true;\n    }\n\n    /**\n    * @dev Cancels an ongoing auction by the owner\n    * @dev Deed is transfered back to the auction owner\n    * @dev Bidder is refunded with the initial amount\n    * @param _auctionId uint ID of the created auction\n    */\n    function cancelAuction(uint _auctionId) public isOwner(_auctionId) {\n        Auction memory myAuction = auctions[_auctionId];\n        uint bidsLength = auctionBids[_auctionId].length;\n\n        // if there are bids refund the last bid\n        if( bidsLength > 0 ) {\n            Bid memory lastBid = auctionBids[_auctionId][bidsLength - 1];\n            if(!lastBid.from.send(lastBid.amount)) {\n                revert();\n            }\n        }\n\n        // approve and transfer from this contract to auction owner\n        if(approveAndTransfer(address(this), myAuction.owner, myAuction.deedRepositoryAddress, myAuction.deedId)){\n            auctions[_auctionId].active = false;\n            emit AuctionCanceled(msg.sender, _auctionId);\n        }\n    }\n\n    /**\n    * @dev Finalized an ended auction\n    * @dev The auction should be ended, and there should be at least one bid\n    * @dev On success Deed is transfered to bidder and auction owner gets the amount\n    * @param _auctionId uint ID of the created auction\n    */\n    function finalizeAuction(uint _auctionId) public {\n        Auction memory myAuction = auctions[_auctionId];\n        uint bidsLength = auctionBids[_auctionId].length;\n\n        // 1. if auction not ended just revert\n        if( block.timestamp < myAuction.blockDeadline ) revert();\n        \n        // if there are no bids cancel\n        if(bidsLength == 0) {\n            cancelAuction(_auctionId);\n        }else{\n\n            // 2. the money goes to the auction owner\n            Bid memory lastBid = auctionBids[_auctionId][bidsLength - 1];\n            if(!myAuction.owner.send(lastBid.amount)) {\n                revert();\n            }\n\n            // approve and transfer from this contract to the bid winner \n            if(approveAndTransfer(address(this), lastBid.from, myAuction.deedRepositoryAddress, myAuction.deedId)){\n                auctions[_auctionId].active = false;\n                auctions[_auctionId].finalized = true;\n                emit AuctionFinalized(msg.sender, _auctionId);\n            }\n        }\n    }\n\n    /**\n    * @dev Bidder sends bid on an auction\n    * @dev Auction should be active and not ended\n    * @dev Refund previous bidder if a new bid is valid and placed.\n    * @param _auctionId uint ID of the created auction\n    */\n    function bidOnAuction(uint _auctionId) external payable {\n        uint256 ethAmountSent = msg.value;\n\n        // owner can't bid on their auctions\n        Auction memory myAuction = auctions[_auctionId];\n        if(myAuction.owner == msg.sender) revert();\n\n        // if auction is expired\n        if( block.timestamp > myAuction.blockDeadline ) revert();\n\n        uint bidsLength = auctionBids[_auctionId].length;\n        uint256 tempAmount = myAuction.startPrice;\n        Bid memory lastBid;\n\n        // there are previous bids\n        if( bidsLength > 0 ) {\n            lastBid = auctionBids[_auctionId][bidsLength - 1];\n            tempAmount = lastBid.amount;\n        }\n\n        // check if amound is greater than previous amount  \n        if( ethAmountSent < tempAmount ) revert(); \n\n        // refund the last bidder\n        if( bidsLength > 0 ) {\n            if(!lastBid.from.send(lastBid.amount)) {\n                revert();\n            }  \n        }\n\n        // insert bid \n        Bid memory newBid;\n        newBid.from = msg.sender;\n        newBid.amount = ethAmountSent;\n        auctionBids[_auctionId].push(newBid);\n        emit BidSuccess(msg.sender, _auctionId);\n    }\n\n    event BidSuccess(address _from, uint _auctionId);\n\n    // AuctionCreated is fired when an auction is created\n    event AuctionCreated(address _owner, uint _auctionId);\n\n    // AuctionCanceled is fired when an auction is canceled\n    event AuctionCanceled(address _owner, uint _auctionId);\n\n    // AuctionFinalized is fired when an auction is finalized\n    event AuctionFinalized(address _owner, uint _auctionId);\n}\n",
    "sourcePath": "/home/younix/Desktop/auction_dapp/backend/contracts/AuctionRepository.sol",
    "compiler": {
        "name": "solc",
        "version": "0.4.21+commit.dfe3193c.Emscripten.clang"
    },
    "schemaVersion": "2.0.0",
    "updatedAt": "2018-04-06T23:45:38.373Z"
}