{
    "contractName": "DeedRepository",
    "abi": [
        {
            "constant": true,
            "inputs": [],
            "name": "name",
            "outputs": [
                {
                    "name": "",
                    "type": "string"
                }
            ],
            "payable": false,
            "stateMutability": "view",
            "type": "function"
        },
        {
            "constant": true,
            "inputs": [
                {
                    "name": "_tokenId",
                    "type": "uint256"
                }
            ],
            "name": "getApproved",
            "outputs": [
                {
                    "name": "",
                    "type": "address"
                }
            ],
            "payable": false,
            "stateMutability": "view",
            "type": "function"
        },
        {
            "constant": false,
            "inputs": [
                {
                    "name": "_to",
                    "type": "address"
                },
                {
                    "name": "_tokenId",
                    "type": "uint256"
                }
            ],
            "name": "approve",
            "outputs": [],
            "payable": false,
            "stateMutability": "nonpayable",
            "type": "function"
        },
        {
            "constant": true,
            "inputs": [],
            "name": "totalSupply",
            "outputs": [
                {
                    "name": "",
                    "type": "uint256"
                }
            ],
            "payable": false,
            "stateMutability": "view",
            "type": "function"
        },
        {
            "constant": false,
            "inputs": [
                {
                    "name": "_from",
                    "type": "address"
                },
                {
                    "name": "_to",
                    "type": "address"
                },
                {
                    "name": "_tokenId",
                    "type": "uint256"
                }
            ],
            "name": "transferFrom",
            "outputs": [],
            "payable": false,
            "stateMutability": "nonpayable",
            "type": "function"
        },
        {
            "constant": true,
            "inputs": [
                {
                    "name": "_owner",
                    "type": "address"
                },
                {
                    "name": "_index",
                    "type": "uint256"
                }
            ],
            "name": "tokenOfOwnerByIndex",
            "outputs": [
                {
                    "name": "",
                    "type": "uint256"
                }
            ],
            "payable": false,
            "stateMutability": "view",
            "type": "function"
        },
        {
            "constant": false,
            "inputs": [
                {
                    "name": "_from",
                    "type": "address"
                },
                {
                    "name": "_to",
                    "type": "address"
                },
                {
                    "name": "_tokenId",
                    "type": "uint256"
                }
            ],
            "name": "safeTransferFrom",
            "outputs": [],
            "payable": false,
            "stateMutability": "nonpayable",
            "type": "function"
        },
        {
            "constant": true,
            "inputs": [
                {
                    "name": "_tokenId",
                    "type": "uint256"
                }
            ],
            "name": "exists",
            "outputs": [
                {
                    "name": "",
                    "type": "bool"
                }
            ],
            "payable": false,
            "stateMutability": "view",
            "type": "function"
        },
        {
            "constant": true,
            "inputs": [
                {
                    "name": "_index",
                    "type": "uint256"
                }
            ],
            "name": "tokenByIndex",
            "outputs": [
                {
                    "name": "",
                    "type": "uint256"
                }
            ],
            "payable": false,
            "stateMutability": "view",
            "type": "function"
        },
        {
            "constant": true,
            "inputs": [
                {
                    "name": "_tokenId",
                    "type": "uint256"
                }
            ],
            "name": "ownerOf",
            "outputs": [
                {
                    "name": "",
                    "type": "address"
                }
            ],
            "payable": false,
            "stateMutability": "view",
            "type": "function"
        },
        {
            "constant": true,
            "inputs": [
                {
                    "name": "_owner",
                    "type": "address"
                }
            ],
            "name": "balanceOf",
            "outputs": [
                {
                    "name": "",
                    "type": "uint256"
                }
            ],
            "payable": false,
            "stateMutability": "view",
            "type": "function"
        },
        {
            "constant": true,
            "inputs": [],
            "name": "symbol",
            "outputs": [
                {
                    "name": "",
                    "type": "string"
                }
            ],
            "payable": false,
            "stateMutability": "view",
            "type": "function"
        },
        {
            "constant": false,
            "inputs": [
                {
                    "name": "_to",
                    "type": "address"
                },
                {
                    "name": "_approved",
                    "type": "bool"
                }
            ],
            "name": "setApprovalForAll",
            "outputs": [],
            "payable": false,
            "stateMutability": "nonpayable",
            "type": "function"
        },
        {
            "constant": false,
            "inputs": [
                {
                    "name": "_from",
                    "type": "address"
                },
                {
                    "name": "_to",
                    "type": "address"
                },
                {
                    "name": "_tokenId",
                    "type": "uint256"
                },
                {
                    "name": "_data",
                    "type": "bytes"
                }
            ],
            "name": "safeTransferFrom",
            "outputs": [],
            "payable": false,
            "stateMutability": "nonpayable",
            "type": "function"
        },
        {
            "constant": true,
            "inputs": [
                {
                    "name": "_tokenId",
                    "type": "uint256"
                }
            ],
            "name": "tokenURI",
            "outputs": [
                {
                    "name": "",
                    "type": "string"
                }
            ],
            "payable": false,
            "stateMutability": "view",
            "type": "function"
        },
        {
            "constant": true,
            "inputs": [
                {
                    "name": "_owner",
                    "type": "address"
                },
                {
                    "name": "_operator",
                    "type": "address"
                }
            ],
            "name": "isApprovedForAll",
            "outputs": [
                {
                    "name": "",
                    "type": "bool"
                }
            ],
            "payable": false,
            "stateMutability": "view",
            "type": "function"
        },
        {
            "inputs": [
                {
                    "name": "_name",
                    "type": "string"
                },
                {
                    "name": "_symbol",
                    "type": "string"
                }
            ],
            "payable": false,
            "stateMutability": "nonpayable",
            "type": "constructor"
        },
        {
            "anonymous": false,
            "inputs": [
                {
                    "indexed": false,
                    "name": "_by",
                    "type": "address"
                },
                {
                    "indexed": false,
                    "name": "_tokenId",
                    "type": "uint256"
                }
            ],
            "name": "DeedRegistered",
            "type": "event"
        },
        {
            "anonymous": false,
            "inputs": [
                {
                    "indexed": true,
                    "name": "_from",
                    "type": "address"
                },
                {
                    "indexed": true,
                    "name": "_to",
                    "type": "address"
                },
                {
                    "indexed": false,
                    "name": "_tokenId",
                    "type": "uint256"
                }
            ],
            "name": "Transfer",
            "type": "event"
        },
        {
            "anonymous": false,
            "inputs": [
                {
                    "indexed": true,
                    "name": "_owner",
                    "type": "address"
                },
                {
                    "indexed": true,
                    "name": "_approved",
                    "type": "address"
                },
                {
                    "indexed": false,
                    "name": "_tokenId",
                    "type": "uint256"
                }
            ],
            "name": "Approval",
            "type": "event"
        },
        {
            "anonymous": false,
            "inputs": [
                {
                    "indexed": true,
                    "name": "_owner",
                    "type": "address"
                },
                {
                    "indexed": true,
                    "name": "_operator",
                    "type": "address"
                },
                {
                    "indexed": false,
                    "name": "_approved",
                    "type": "bool"
                }
            ],
            "name": "ApprovalForAll",
            "type": "event"
        },
        {
            "constant": false,
            "inputs": [
                {
                    "name": "_tokenId",
                    "type": "uint256"
                },
                {
                    "name": "_uri",
                    "type": "string"
                }
            ],
            "name": "registerDeed",
            "outputs": [],
            "payable": false,
            "stateMutability": "nonpayable",
            "type": "function"
        },
        {
            "constant": false,
            "inputs": [
                {
                    "name": "_tokenId",
                    "type": "uint256"
                },
                {
                    "name": "_uri",
                    "type": "string"
                }
            ],
            "name": "addDeedMetadata",
            "outputs": [
                {
                    "name": "",
                    "type": "bool"
                }
            ],
            "payable": false,
            "stateMutability": "nonpayable",
            "type": "function"
        }
    ],
    "bytecode": "0x606060405234156200001057600080fd5b60405162001f8238038062001f8283398101604052808051820191906020018051820191905050818181600490805190602001906200005192919062000075565b5080600590805190602001906200006a92919062000075565b505050505062000124565b828054600181600116156101000203166002900490600052602060002090601f016020900481019282601f10620000b857805160ff1916838001178555620000e9565b82800160010185558215620000e9579182015b82811115620000e8578251825591602001919060010190620000cb565b5b509050620000f89190620000fc565b5090565b6200012191905b808211156200011d57600081600090555060010162000103565b5090565b90565b611e4e80620001346000396000f3006060604052600436106100fc576000357c0100000000000000000000000000000000000000000000000000000000900463ffffffff16806306fdde0314610101578063081812fc1461018f578063095ea7b3146101f257806318160ddd1461023457806323b872dd1461025d5780632f745c59146102be57806342842e0e146103145780634f558e79146103755780634f6ccce7146103b05780636352211e146103e757806370a082311461044a57806395d89b4114610497578063a22cb46514610525578063b88d4fde14610569578063c87b56dd1461060d578063da556033146106a9578063e985e9c514610727578063f72439dd14610797575b600080fd5b341561010c57600080fd5b6101146107fd565b6040518080602001828103825283818151815260200191508051906020019080838360005b83811015610154578082015181840152602081019050610139565b50505050905090810190601f1680156101815780820380516001836020036101000a031916815260200191505b509250505060405180910390f35b341561019a57600080fd5b6101b060048080359060200190919050506108a5565b604051808273ffffffffffffffffffffffffffffffffffffffff1673ffffffffffffffffffffffffffffffffffffffff16815260200191505060405180910390f35b34156101fd57600080fd5b610232600480803573ffffffffffffffffffffffffffffffffffffffff169060200190919080359060200190919050506108e2565b005b341561023f57600080fd5b610247610aa8565b6040518082815260200191505060405180910390f35b341561026857600080fd5b6102bc600480803573ffffffffffffffffffffffffffffffffffffffff1690602001909190803573ffffffffffffffffffffffffffffffffffffffff16906020019091908035906020019091905050610ab5565b005b34156102c957600080fd5b6102fe600480803573ffffffffffffffffffffffffffffffffffffffff16906020019091908035906020019091905050610bcc565b6040518082815260200191505060405180910390f35b341561031f57600080fd5b610373600480803573ffffffffffffffffffffffffffffffffffffffff1690602001909190803573ffffffffffffffffffffffffffffffffffffffff16906020019091908035906020019091905050610c44565b005b341561038057600080fd5b6103966004808035906020019091905050610c7c565b604051808215151515815260200191505060405180910390f35b34156103bb57600080fd5b6103d16004808035906020019091905050610ced565b6040518082815260200191505060405180910390f35b34156103f257600080fd5b6104086004808035906020019091905050610d26565b604051808273ffffffffffffffffffffffffffffffffffffffff1673ffffffffffffffffffffffffffffffffffffffff16815260200191505060405180910390f35b341561045557600080fd5b610481600480803573ffffffffffffffffffffffffffffffffffffffff16906020019091905050610da3565b6040518082815260200191505060405180910390f35b34156104a257600080fd5b6104aa610e27565b6040518080602001828103825283818151815260200191508051906020019080838360005b838110156104ea5780820151818401526020810190506104cf565b50505050905090810190601f1680156105175780820380516001836020036101000a031916815260200191505b509250505060405180910390f35b341561053057600080fd5b610567600480803573ffffffffffffffffffffffffffffffffffffffff169060200190919080351515906020019091905050610ecf565b005b341561057457600080fd5b61060b600480803573ffffffffffffffffffffffffffffffffffffffff1690602001909190803573ffffffffffffffffffffffffffffffffffffffff1690602001909190803590602001909190803590602001908201803590602001908080601f0160208091040260200160405190810160405280939291908181526020018383808284378201915050505050509190505061100b565b005b341561061857600080fd5b61062e600480803590602001909190505061104a565b6040518080602001828103825283818151815260200191508051906020019080838360005b8381101561066e578082015181840152602081019050610653565b50505050905090810190601f16801561069b5780820380516001836020036101000a031916815260200191505b509250505060405180910390f35b34156106b457600080fd5b61070d600480803590602001909190803590602001908201803590602001908080601f01602080910402602001604051908101604052809392919081815260200183838082843782019150505050505091905050611119565b604051808215151515815260200191505060405180910390f35b341561073257600080fd5b61077d600480803573ffffffffffffffffffffffffffffffffffffffff1690602001909190803573ffffffffffffffffffffffffffffffffffffffff1690602001909190505061112f565b604051808215151515815260200191505060405180910390f35b34156107a257600080fd5b6107fb600480803590602001909190803590602001908201803590602001908080601f016020809104026020016040519081016040528093929190818152602001838380828437820191505050505050919050506111c3565b005b610805611d11565b60048054600181600116156101000203166002900480601f01602080910402602001604051908101604052809291908181526020018280546001816001161561010002031660029004801561089b5780601f106108705761010080835404028352916020019161089b565b820191906000526020600020905b81548152906001019060200180831161087e57829003601f168201915b5050505050905090565b60006001600083815260200190815260200160002060009054906101000a900473ffffffffffffffffffffffffffffffffffffffff169050919050565b60006108ed82610d26565b90508073ffffffffffffffffffffffffffffffffffffffff168373ffffffffffffffffffffffffffffffffffffffff161415151561092a57600080fd5b8073ffffffffffffffffffffffffffffffffffffffff163373ffffffffffffffffffffffffffffffffffffffff16148061096a5750610969813361112f565b5b151561097557600080fd5b600073ffffffffffffffffffffffffffffffffffffffff16610996836108a5565b73ffffffffffffffffffffffffffffffffffffffff161415806109e65750600073ffffffffffffffffffffffffffffffffffffffff168373ffffffffffffffffffffffffffffffffffffffff1614155b15610aa357826001600084815260200190815260200160002060006101000a81548173ffffffffffffffffffffffffffffffffffffffff021916908373ffffffffffffffffffffffffffffffffffffffff1602179055508273ffffffffffffffffffffffffffffffffffffffff168173ffffffffffffffffffffffffffffffffffffffff167f8c5be1e5ebec7d5bd14f71427d1e84f3dd0314c0f7b2291e5b200ac8c7c3b925846040518082815260200191505060405180910390a35b505050565b6000600880549050905090565b80610ac03382611247565b1515610acb57600080fd5b600073ffffffffffffffffffffffffffffffffffffffff168473ffffffffffffffffffffffffffffffffffffffff1614151515610b0757600080fd5b600073ffffffffffffffffffffffffffffffffffffffff168373ffffffffffffffffffffffffffffffffffffffff1614151515610b4357600080fd5b610b4d84836112dc565b610b578483611445565b610b618383611660565b8273ffffffffffffffffffffffffffffffffffffffff168473ffffffffffffffffffffffffffffffffffffffff167fddf252ad1be2c89b69c2b068fc378daa952ba7f163c4a11628f55a4df523b3ef846040518082815260200191505060405180910390a350505050565b6000610bd783610da3565b82101515610be457600080fd5b600660008473ffffffffffffffffffffffffffffffffffffffff1673ffffffffffffffffffffffffffffffffffffffff16815260200190815260200160002082815481101515610c3057fe5b906000526020600020900154905092915050565b80610c4f3382611247565b1515610c5a57600080fd5b610c76848484602060405190810160405280600081525061100b565b50505050565b60008060008084815260200190815260200160002060009054906101000a900473ffffffffffffffffffffffffffffffffffffffff169050600073ffffffffffffffffffffffffffffffffffffffff168173ffffffffffffffffffffffffffffffffffffffff161415915050919050565b6000610cf7610aa8565b82101515610d0457600080fd5b600882815481101515610d1357fe5b9060005260206000209001549050919050565b60008060008084815260200190815260200160002060009054906101000a900473ffffffffffffffffffffffffffffffffffffffff169050600073ffffffffffffffffffffffffffffffffffffffff168173ffffffffffffffffffffffffffffffffffffffff1614151515610d9a57600080fd5b80915050919050565b60008073ffffffffffffffffffffffffffffffffffffffff168273ffffffffffffffffffffffffffffffffffffffff1614151515610de057600080fd5b600260008373ffffffffffffffffffffffffffffffffffffffff1673ffffffffffffffffffffffffffffffffffffffff168152602001908152602001600020549050919050565b610e2f611d11565b60058054600181600116156101000203166002900480601f016020809104026020016040519081016040528092919081815260200182805460018160011615610100020316600290048015610ec55780601f10610e9a57610100808354040283529160200191610ec5565b820191906000526020600020905b815481529060010190602001808311610ea857829003601f168201915b5050505050905090565b3373ffffffffffffffffffffffffffffffffffffffff168273ffffffffffffffffffffffffffffffffffffffff1614151515610f0a57600080fd5b80600360003373ffffffffffffffffffffffffffffffffffffffff1673ffffffffffffffffffffffffffffffffffffffff16815260200190815260200160002060008473ffffffffffffffffffffffffffffffffffffffff1673ffffffffffffffffffffffffffffffffffffffff16815260200190815260200160002060006101000a81548160ff0219169083151502179055508173ffffffffffffffffffffffffffffffffffffffff163373ffffffffffffffffffffffffffffffffffffffff167f17307eab39ab6107e8899845ad3d59bd9653f200f220920489ca2b5937696c3183604051808215151515815260200191505060405180910390a35050565b816110163382611247565b151561102157600080fd5b61102c858585610ab5565b61103885858585611734565b151561104357600080fd5b5050505050565b611052611d11565b61105b82610c7c565b151561106657600080fd5b600a60008381526020019081526020016000208054600181600116156101000203166002900480601f01602080910402602001604051908101604052809291908181526020018280546001816001161561010002031660029004801561110d5780601f106110e25761010080835404028352916020019161110d565b820191906000526020600020905b8154815290600101906020018083116110f057829003601f168201915b50505050509050919050565b600061112583836118fd565b6001905092915050565b6000600360008473ffffffffffffffffffffffffffffffffffffffff1673ffffffffffffffffffffffffffffffffffffffff16815260200190815260200160002060008373ffffffffffffffffffffffffffffffffffffffff1673ffffffffffffffffffffffffffffffffffffffff16815260200190815260200160002060009054906101000a900460ff16905092915050565b6111cd338361193d565b6111d78282611119565b507f32cc5b866d6a5990a7f987020b639157969cb963b9beb2cdf41df22ab152df353383604051808373ffffffffffffffffffffffffffffffffffffffff1673ffffffffffffffffffffffffffffffffffffffff1681526020018281526020019250505060405180910390a15050565b60008061125383610d26565b90508073ffffffffffffffffffffffffffffffffffffffff168473ffffffffffffffffffffffffffffffffffffffff1614806112c257508373ffffffffffffffffffffffffffffffffffffffff166112aa846108a5565b73ffffffffffffffffffffffffffffffffffffffff16145b806112d357506112d2818561112f565b5b91505092915050565b8173ffffffffffffffffffffffffffffffffffffffff166112fc82610d26565b73ffffffffffffffffffffffffffffffffffffffff1614151561131e57600080fd5b600073ffffffffffffffffffffffffffffffffffffffff166001600083815260200190815260200160002060009054906101000a900473ffffffffffffffffffffffffffffffffffffffff1673ffffffffffffffffffffffffffffffffffffffff161415156114415760006001600083815260200190815260200160002060006101000a81548173ffffffffffffffffffffffffffffffffffffffff021916908373ffffffffffffffffffffffffffffffffffffffff160217905550600073ffffffffffffffffffffffffffffffffffffffff168273ffffffffffffffffffffffffffffffffffffffff167f8c5be1e5ebec7d5bd14f71427d1e84f3dd0314c0f7b2291e5b200ac8c7c3b925836040518082815260200191505060405180910390a35b5050565b60008060006114548585611991565b600760008581526020019081526020016000205492506114c06001600660008873ffffffffffffffffffffffffffffffffffffffff1673ffffffffffffffffffffffffffffffffffffffff16815260200190815260200160002080549050611abf90919063ffffffff16565b9150600660008673ffffffffffffffffffffffffffffffffffffffff1673ffffffffffffffffffffffffffffffffffffffff1681526020019081526020016000208281548110151561150e57fe5b906000526020600020900154905080600660008773ffffffffffffffffffffffffffffffffffffffff1673ffffffffffffffffffffffffffffffffffffffff1681526020019081526020016000208481548110151561156957fe5b9060005260206000209001819055506000600660008773ffffffffffffffffffffffffffffffffffffffff1673ffffffffffffffffffffffffffffffffffffffff168152602001908152602001600020838154811015156115c657fe5b906000526020600020900181905550600660008673ffffffffffffffffffffffffffffffffffffffff1673ffffffffffffffffffffffffffffffffffffffff1681526020019081526020016000208054809190600190036116279190611d25565b50600060076000868152602001908152602001600020819055508260076000838152602001908152602001600020819055505050505050565b600061166c8383611ad8565b600660008473ffffffffffffffffffffffffffffffffffffffff1673ffffffffffffffffffffffffffffffffffffffff168152602001908152602001600020805490509050600660008473ffffffffffffffffffffffffffffffffffffffff1673ffffffffffffffffffffffffffffffffffffffff16815260200190815260200160002080548060010182816117029190611d51565b916000526020600020900160008490919091505550806007600084815260200190815260200160002081905550505050565b6000806117568573ffffffffffffffffffffffffffffffffffffffff16611c30565b151561176557600191506118f4565b8473ffffffffffffffffffffffffffffffffffffffff1663f0b9e5ba8786866040518463ffffffff167c0100000000000000000000000000000000000000000000000000000000028152600401808473ffffffffffffffffffffffffffffffffffffffff1673ffffffffffffffffffffffffffffffffffffffff16815260200183815260200180602001828103825283818151815260200191508051906020019080838360005b8381101561182757808201518184015260208101905061180c565b50505050905090810190601f1680156118545780820380516001836020036101000a031916815260200191505b50945050505050602060405180830381600087803b151561187457600080fd5b5af1151561188157600080fd5b50505060405180519050905063f0b9e5ba7c0100000000000000000000000000000000000000000000000000000000027bffffffffffffffffffffffffffffffffffffffffffffffffffffffff1916817bffffffffffffffffffffffffffffffffffffffffffffffffffffffff19161491505b50949350505050565b61190682610c7c565b151561191157600080fd5b80600a60008481526020019081526020016000209080519060200190611938929190611d7d565b505050565b6119478282611c43565b6008805490506009600083815260200190815260200160002081905550600880548060010182816119789190611d51565b9160005260206000209001600083909190915055505050565b8173ffffffffffffffffffffffffffffffffffffffff166119b182610d26565b73ffffffffffffffffffffffffffffffffffffffff161415156119d357600080fd5b611a266001600260008573ffffffffffffffffffffffffffffffffffffffff1673ffffffffffffffffffffffffffffffffffffffff16815260200190815260200160002054611abf90919063ffffffff16565b600260008473ffffffffffffffffffffffffffffffffffffffff1673ffffffffffffffffffffffffffffffffffffffff16815260200190815260200160002081905550600080600083815260200190815260200160002060006101000a81548173ffffffffffffffffffffffffffffffffffffffff021916908373ffffffffffffffffffffffffffffffffffffffff1602179055505050565b6000828211151515611acd57fe5b818303905092915050565b600073ffffffffffffffffffffffffffffffffffffffff1660008083815260200190815260200160002060009054906101000a900473ffffffffffffffffffffffffffffffffffffffff1673ffffffffffffffffffffffffffffffffffffffff16141515611b4557600080fd5b8160008083815260200190815260200160002060006101000a81548173ffffffffffffffffffffffffffffffffffffffff021916908373ffffffffffffffffffffffffffffffffffffffff160217905550611be96001600260008573ffffffffffffffffffffffffffffffffffffffff1673ffffffffffffffffffffffffffffffffffffffff16815260200190815260200160002054611cf390919063ffffffff16565b600260008473ffffffffffffffffffffffffffffffffffffffff1673ffffffffffffffffffffffffffffffffffffffff168152602001908152602001600020819055505050565b600080823b905060008111915050919050565b600073ffffffffffffffffffffffffffffffffffffffff168273ffffffffffffffffffffffffffffffffffffffff1614151515611c7f57600080fd5b611c898282611660565b8173ffffffffffffffffffffffffffffffffffffffff16600073ffffffffffffffffffffffffffffffffffffffff167fddf252ad1be2c89b69c2b068fc378daa952ba7f163c4a11628f55a4df523b3ef836040518082815260200191505060405180910390a35050565b6000808284019050838110151515611d0757fe5b8091505092915050565b602060405190810160405280600081525090565b815481835581811511611d4c57818360005260206000209182019101611d4b9190611dfd565b5b505050565b815481835581811511611d7857818360005260206000209182019101611d779190611dfd565b5b505050565b828054600181600116156101000203166002900490600052602060002090601f016020900481019282601f10611dbe57805160ff1916838001178555611dec565b82800160010185558215611dec579182015b82811115611deb578251825591602001919060010190611dd0565b5b509050611df99190611dfd565b5090565b611e1f91905b80821115611e1b576000816000905550600101611e03565b5090565b905600a165627a7a723058200562ee3b02d87d09a98ec767c477291a1fe3199776313e47ef8cb9cee464467f0029",
    "source": "pragma solidity ^0.4.17;\nimport \"./ERC721/ERC721Token.sol\";\n\n/**\n * @title Repository of ERC721 Deeds\n * This contract contains the list of deeds registered by users.\n * This is a demo to show how tokens(deeds) can be mint and add to the repository\n */\ncontract DeedRepository is ERC721Token {\n\n    /**\n    * @dev Created a DeedRepository with a name and symbol\n    * @param _name string represents the name of the repository\n    * @param _symbol string represents the symbol of the repositor\n    */\n    function DeedRepository(string _name, string _symbol) public ERC721Token(_name, _symbol) {}\n    \n    /**\n    * @dev Public function to register a new deed\n    * @dev Call the ERC721Token Minter\n    * @param _tokenId uint256 represents a specific deed\n    * @param _uri string containing metadata/uri\n    */\n    function registerDeed(uint256 _tokenId, string _uri) public {\n        _mint(msg.sender, _tokenId);\n        addDeedMetadata(_tokenId, _uri);\n        emit DeedRegistered(msg.sender, _tokenId);\n    }\n\n    /**\n    * @dev Public function to add metadata to a deed\n    * @param _tokenId represents a specific deed\n    * @param _uri text which describes the characteristics of a given deed\n    * @return whether the deed metadata was added to the repository\n    */\n    function addDeedMetadata(uint256 _tokenId, string _uri) public returns(bool){\n        _setTokenURI(_tokenId, _uri);\n        return true;\n    }\n\n    /**\n    * @dev Event is triggered if deed/token is registered\n    * @param _by address of the registrar\n    * @param _tokenId uint256 represents a specific deed\n    */\n    event DeedRegistered(address _by, uint256 _tokenId);\n}",
    "sourcePath": "/home/younix/Desktop/auction_dapp/backend/contracts/DeedRepository.sol",
    "compiler": {
        "name": "solc",
        "version": "0.4.21+commit.dfe3193c.Emscripten.clang"
    },
    "schemaVersion": "2.0.0",
    "updatedAt": "2018-04-04T16:42:58.322Z"
}